{
  "_format": "hh-sol-artifact-1",
  "contractName": "DiabetesAnalytics",
  "sourceName": "contracts/DiabetesAnalytics.sol",
  "abi": [
    {
      "inputs": [],
      "stateMutability": "nonpayable",
      "type": "constructor"
    },
    {
      "anonymous": false,
      "inputs": [
        {
          "indexed": true,
          "internalType": "uint256",
          "name": "requestId",
          "type": "uint256"
        },
        {
          "indexed": false,
          "internalType": "string",
          "name": "resultCid",
          "type": "string"
        }
      ],
      "name": "AnalysisCompleted",
      "type": "event"
    },
    {
      "anonymous": false,
      "inputs": [
        {
          "indexed": true,
          "internalType": "address",
          "name": "researcher",
          "type": "address"
        },
        {
          "indexed": false,
          "internalType": "uint256",
          "name": "requestId",
          "type": "uint256"
        }
      ],
      "name": "AnalysisRequested",
      "type": "event"
    },
    {
      "anonymous": false,
      "inputs": [
        {
          "indexed": true,
          "internalType": "address",
          "name": "patient",
          "type": "address"
        },
        {
          "indexed": false,
          "internalType": "string",
          "name": "ipfsCid",
          "type": "string"
        },
        {
          "indexed": false,
          "internalType": "uint256",
          "name": "timestamp",
          "type": "uint256"
        }
      ],
      "name": "DataSubmitted",
      "type": "event"
    },
    {
      "inputs": [
        {
          "internalType": "uint256",
          "name": "",
          "type": "uint256"
        }
      ],
      "name": "allPatients",
      "outputs": [
        {
          "internalType": "address",
          "name": "",
          "type": "address"
        }
      ],
      "stateMutability": "view",
      "type": "function"
    },
    {
      "inputs": [],
      "name": "analysisFeeBasis",
      "outputs": [
        {
          "internalType": "uint256",
          "name": "",
          "type": "uint256"
        }
      ],
      "stateMutability": "view",
      "type": "function"
    },
    {
      "inputs": [
        {
          "internalType": "uint256",
          "name": "",
          "type": "uint256"
        }
      ],
      "name": "analysisRequests",
      "outputs": [
        {
          "internalType": "address",
          "name": "researcher",
          "type": "address"
        },
        {
          "internalType": "uint256",
          "name": "timestamp",
          "type": "uint256"
        },
        {
          "internalType": "bool",
          "name": "completed",
          "type": "bool"
        },
        {
          "internalType": "string",
          "name": "resultCid",
          "type": "string"
        },
        {
          "internalType": "uint256",
          "name": "fee",
          "type": "uint256"
        },
        {
          "internalType": "uint8",
          "name": "analysisType",
          "type": "uint8"
        }
      ],
      "stateMutability": "view",
      "type": "function"
    },
    {
      "inputs": [
        {
          "internalType": "address",
          "name": "researcher",
          "type": "address"
        }
      ],
      "name": "authorizeResearcher",
      "outputs": [],
      "stateMutability": "nonpayable",
      "type": "function"
    },
    {
      "inputs": [
        {
          "internalType": "address",
          "name": "",
          "type": "address"
        }
      ],
      "name": "authorizedResearchers",
      "outputs": [
        {
          "internalType": "bool",
          "name": "",
          "type": "bool"
        }
      ],
      "stateMutability": "view",
      "type": "function"
    },
    {
      "inputs": [
        {
          "internalType": "uint256",
          "name": "requestId",
          "type": "uint256"
        },
        {
          "internalType": "string",
          "name": "resultCid",
          "type": "string"
        }
      ],
      "name": "completeAnalysis",
      "outputs": [],
      "stateMutability": "nonpayable",
      "type": "function"
    },
    {
      "inputs": [
        {
          "internalType": "address",
          "name": "patient",
          "type": "address"
        },
        {
          "internalType": "uint256",
          "name": "index",
          "type": "uint256"
        }
      ],
      "name": "deactivatePatientData",
      "outputs": [],
      "stateMutability": "nonpayable",
      "type": "function"
    },
    {
      "inputs": [],
      "name": "getAllPatients",
      "outputs": [
        {
          "internalType": "address[]",
          "name": "",
          "type": "address[]"
        }
      ],
      "stateMutability": "view",
      "type": "function"
    },
    {
      "inputs": [],
      "name": "getAnalysisFee",
      "outputs": [
        {
          "internalType": "uint256",
          "name": "",
          "type": "uint256"
        }
      ],
      "stateMutability": "view",
      "type": "function"
    },
    {
      "inputs": [
        {
          "internalType": "uint256",
          "name": "requestId",
          "type": "uint256"
        }
      ],
      "name": "getAnalysisRequest",
      "outputs": [
        {
          "internalType": "address",
          "name": "researcher",
          "type": "address"
        },
        {
          "internalType": "uint256",
          "name": "timestamp",
          "type": "uint256"
        },
        {
          "internalType": "bool",
          "name": "completed",
          "type": "bool"
        },
        {
          "internalType": "string",
          "name": "resultCid",
          "type": "string"
        },
        {
          "internalType": "uint256",
          "name": "fee",
          "type": "uint256"
        }
      ],
      "stateMutability": "view",
      "type": "function"
    },
    {
      "inputs": [
        {
          "internalType": "address",
          "name": "patient",
          "type": "address"
        }
      ],
      "name": "getLatestPatientData",
      "outputs": [
        {
          "internalType": "bytes",
          "name": "encryptedBloodGlucose",
          "type": "bytes"
        },
        {
          "internalType": "uint256",
          "name": "timestamp",
          "type": "uint256"
        },
        {
          "internalType": "string",
          "name": "ipfsCid",
          "type": "string"
        }
      ],
      "stateMutability": "view",
      "type": "function"
    },
    {
      "inputs": [
        {
          "internalType": "address",
          "name": "patient",
          "type": "address"
        }
      ],
      "name": "getPatientCids",
      "outputs": [
        {
          "internalType": "string[]",
          "name": "",
          "type": "string[]"
        }
      ],
      "stateMutability": "view",
      "type": "function"
    },
    {
      "inputs": [
        {
          "internalType": "address",
          "name": "patient",
          "type": "address"
        },
        {
          "internalType": "uint256",
          "name": "index",
          "type": "uint256"
        }
      ],
      "name": "getPatientData",
      "outputs": [
        {
          "internalType": "bytes",
          "name": "encryptedBloodGlucose",
          "type": "bytes"
        },
        {
          "internalType": "bytes",
          "name": "encryptionProof",
          "type": "bytes"
        },
        {
          "internalType": "uint256",
          "name": "timestamp",
          "type": "uint256"
        },
        {
          "internalType": "string",
          "name": "ipfsCid",
          "type": "string"
        },
        {
          "internalType": "string",
          "name": "loincCode",
          "type": "string"
        },
        {
          "internalType": "bool",
          "name": "isActive",
          "type": "bool"
        }
      ],
      "stateMutability": "view",
      "type": "function"
    },
    {
      "inputs": [
        {
          "internalType": "address",
          "name": "patient",
          "type": "address"
        }
      ],
      "name": "getPatientSubmissionCount",
      "outputs": [
        {
          "internalType": "uint256",
          "name": "",
          "type": "uint256"
        }
      ],
      "stateMutability": "view",
      "type": "function"
    },
    {
      "inputs": [
        {
          "internalType": "uint256",
          "name": "limit",
          "type": "uint256"
        }
      ],
      "name": "getRecentAnalysisRequests",
      "outputs": [
        {
          "internalType": "uint256[]",
          "name": "",
          "type": "uint256[]"
        }
      ],
      "stateMutability": "view",
      "type": "function"
    },
    {
      "inputs": [],
      "name": "getStats",
      "outputs": [
        {
          "internalType": "uint256",
          "name": "totalPatients",
          "type": "uint256"
        },
        {
          "internalType": "uint256",
          "name": "totalSubmissionsCount",
          "type": "uint256"
        },
        {
          "internalType": "uint256",
          "name": "totalRequests",
          "type": "uint256"
        }
      ],
      "stateMutability": "view",
      "type": "function"
    },
    {
      "inputs": [
        {
          "internalType": "address",
          "name": "researcher",
          "type": "address"
        }
      ],
      "name": "isAuthorizedResearcher",
      "outputs": [
        {
          "internalType": "bool",
          "name": "",
          "type": "bool"
        }
      ],
      "stateMutability": "view",
      "type": "function"
    },
    {
      "inputs": [],
      "name": "nextRequestId",
      "outputs": [
        {
          "internalType": "uint256",
          "name": "",
          "type": "uint256"
        }
      ],
      "stateMutability": "view",
      "type": "function"
    },
    {
      "inputs": [],
      "name": "owner",
      "outputs": [
        {
          "internalType": "address",
          "name": "",
          "type": "address"
        }
      ],
      "stateMutability": "view",
      "type": "function"
    },
    {
      "inputs": [
        {
          "internalType": "address",
          "name": "",
          "type": "address"
        },
        {
          "internalType": "uint256",
          "name": "",
          "type": "uint256"
        }
      ],
      "name": "patientSubmissions",
      "outputs": [
        {
          "internalType": "bytes",
          "name": "encryptedBloodGlucose",
          "type": "bytes"
        },
        {
          "internalType": "bytes",
          "name": "encryptionProof",
          "type": "bytes"
        },
        {
          "internalType": "uint256",
          "name": "timestamp",
          "type": "uint256"
        },
        {
          "internalType": "string",
          "name": "ipfsCid",
          "type": "string"
        },
        {
          "internalType": "string",
          "name": "loincCode",
          "type": "string"
        },
        {
          "internalType": "bool",
          "name": "isActive",
          "type": "bool"
        }
      ],
      "stateMutability": "view",
      "type": "function"
    },
    {
      "inputs": [
        {
          "internalType": "uint8",
          "name": "analysisType",
          "type": "uint8"
        }
      ],
      "name": "requestAnalysis",
      "outputs": [],
      "stateMutability": "payable",
      "type": "function"
    },
    {
      "inputs": [
        {
          "internalType": "address",
          "name": "researcher",
          "type": "address"
        }
      ],
      "name": "revokeResearcher",
      "outputs": [],
      "stateMutability": "nonpayable",
      "type": "function"
    },
    {
      "inputs": [
        {
          "internalType": "bytes",
          "name": "encryptedGlucose",
          "type": "bytes"
        },
        {
          "internalType": "bytes",
          "name": "inputProof",
          "type": "bytes"
        },
        {
          "internalType": "string",
          "name": "ipfsCid",
          "type": "string"
        },
        {
          "internalType": "string",
          "name": "loincCode",
          "type": "string"
        }
      ],
      "name": "submitPatientData",
      "outputs": [],
      "stateMutability": "nonpayable",
      "type": "function"
    },
    {
      "inputs": [],
      "name": "totalSubmissions",
      "outputs": [
        {
          "internalType": "uint256",
          "name": "",
          "type": "uint256"
        }
      ],
      "stateMutability": "view",
      "type": "function"
    },
    {
      "inputs": [
        {
          "internalType": "uint256",
          "name": "newFee",
          "type": "uint256"
        }
      ],
      "name": "updateAnalysisFee",
      "outputs": [],
      "stateMutability": "nonpayable",
      "type": "function"
    },
    {
      "inputs": [],
      "name": "withdraw",
      "outputs": [],
      "stateMutability": "nonpayable",
      "type": "function"
    },
    {
      "stateMutability": "payable",
      "type": "receive"
    }
  ],
  "bytecode": "0x608060405266038d7ea4c6800060065534801561001b57600080fd5b50600780546001600160a01b0319163390811790915560016004819055600091825260026020526040909120805460ff191690911790556122e5806100616000396000f3fe6080604052600436106101855760003560e01c8063a7cee37c116100d1578063c59d48471161008a578063cbae032611610064578063cbae0326146104fb578063d815fbfa1461052a578063d8f608df14610540578063ec43f16c1461056057600080fd5b8063c59d484714610498578063c6297c80146104c8578063c63420b3146104db57600080fd5b8063a7cee37c146103b3578063add4e81d146103d3578063b0d8e615146103f3578063b360a15d14610429578063bd3c59bc14610456578063c05da10b1461048357600080fd5b80633fc421b01161013e57806386a8e5351161011857806386a8e5351461030c5780638da5cb5b146103455780639bbae2571461037d578063a39540161461039d57600080fd5b80633fc421b014610285578063640b5847146102b65780636a84a985146102e857600080fd5b8063056414291461019157806317294e49146101b357806318a231a9146101d35780631f66051d146101fe578063319aafc5146102305780633ccfd60b1461027057600080fd5b3661018c57005b600080fd5b34801561019d57600080fd5b506101b16101ac366004611b38565b610580565b005b3480156101bf57600080fd5b506101b16101ce366004611b5a565b6105d4565b3480156101df57600080fd5b506101e86106ab565b6040516101f59190611b84565b60405180910390f35b34801561020a57600080fd5b5061021e610219366004611bd1565b61070d565b6040516101f596959493929190611c30565b34801561023c57600080fd5b5061026061024b366004611b38565b60026020526000908152604090205460ff1681565b60405190151581526020016101f5565b34801561027c57600080fd5b506101b16107df565b34801561029157600080fd5b506102a56102a0366004611bd1565b610845565b6040516101f5959493929190611c7b565b3480156102c257600080fd5b506102d66102d1366004611b5a565b61092b565b6040516101f596959493929190611cbc565b3480156102f457600080fd5b506102fe60045481565b6040519081526020016101f5565b34801561031857600080fd5b50610260610327366004611b38565b6001600160a01b031660009081526002602052604090205460ff1690565b34801561035157600080fd5b50600754610365906001600160a01b031681565b6040516001600160a01b0390911681526020016101f5565b34801561038957600080fd5b506101b1610398366004611d6e565b610ba7565b3480156103a957600080fd5b506102fe60055481565b3480156103bf57600080fd5b506101b16103ce366004611b38565b610e97565b3480156103df57600080fd5b506102d66103ee366004611b5a565b610ee5565b3480156103ff57600080fd5b506102fe61040e366004611b38565b6001600160a01b031660009081526020819052604090205490565b34801561043557600080fd5b50610449610444366004611b38565b6111f5565b6040516101f59190611e32565b34801561046257600080fd5b50610476610471366004611bd1565b611346565b6040516101f59190611e96565b34801561048f57600080fd5b506006546102fe565b3480156104a457600080fd5b506104ad6113f8565b604080519384526020840192909252908201526060016101f5565b6101b16104d6366004611ece565b611420565b3480156104e757600080fd5b506101b16104f6366004611bd1565b611687565b34801561050757600080fd5b5061051b610516366004611b38565b6116b6565b6040516101f593929190611ef1565b34801561053657600080fd5b506102fe60065481565b34801561054c57600080fd5b5061036561055b366004611bd1565b611890565b34801561056c57600080fd5b506101b161057b366004611f26565b6118ba565b6007546001600160a01b031633146105b35760405162461bcd60e51b81526004016105aa90611f72565b60405180910390fd5b6001600160a01b03166000908152600260205260409020805460ff19169055565b6007546001600160a01b031633146105fe5760405162461bcd60e51b81526004016105aa90611f72565b6001600160a01b038216600090815260208190526040902054811061065b5760405162461bcd60e51b8152602060048201526013602482015272496e646578206f7574206f6620626f756e647360681b60448201526064016105aa565b6001600160a01b038216600090815260208190526040812080548390811061068557610685611fb3565b60009182526020909120600690910201600501805460ff19169115159190911790555050565b6060600380548060200260200160405190810160405280929190818152602001828054801561070357602002820191906000526020600020905b81546001600160a01b031681526001909101906020018083116106e5575b5050505050905090565b600160208190526000918252604090912080549181015460028201546003830180546001600160a01b0390951694929360ff9092169261074c90611fc9565b80601f016020809104026020016040519081016040528092919081815260200182805461077890611fc9565b80156107c55780601f1061079a576101008083540402835291602001916107c5565b820191906000526020600020905b8154815290600101906020018083116107a857829003601f168201915b50505050600483015460059093015491929160ff16905086565b6007546001600160a01b031633146108095760405162461bcd60e51b81526004016105aa90611f72565b6007546040516001600160a01b03909116904780156108fc02916000818181858888f19350505050158015610842573d6000803e3d6000fd5b50565b600081815260016020819052604082208054918101546002820154600483015460038401805487968796606096889691956001600160a01b0390931694909360ff909216929091829061089790611fc9565b80601f01602080910402602001604051908101604052809291908181526020018280546108c390611fc9565b80156109105780601f106108e557610100808354040283529160200191610910565b820191906000526020600020905b8154815290600101906020018083116108f357829003601f168201915b50505050509150955095509550955095505091939590929450565b6000602052816000526040600020818154811061094757600080fd5b90600052602060002090600602016000915091505080600001805461096b90611fc9565b80601f016020809104026020016040519081016040528092919081815260200182805461099790611fc9565b80156109e45780601f106109b9576101008083540402835291602001916109e4565b820191906000526020600020905b8154815290600101906020018083116109c757829003601f168201915b5050505050908060010180546109f990611fc9565b80601f0160208091040260200160405190810160405280929190818152602001828054610a2590611fc9565b8015610a725780601f10610a4757610100808354040283529160200191610a72565b820191906000526020600020905b815481529060010190602001808311610a5557829003601f168201915b505050505090806002015490806003018054610a8d90611fc9565b80601f0160208091040260200160405190810160405280929190818152602001828054610ab990611fc9565b8015610b065780601f10610adb57610100808354040283529160200191610b06565b820191906000526020600020905b815481529060010190602001808311610ae957829003601f168201915b505050505090806004018054610b1b90611fc9565b80601f0160208091040260200160405190810160405280929190818152602001828054610b4790611fc9565b8015610b945780601f10610b6957610100808354040283529160200191610b94565b820191906000526020600020905b815481529060010190602001808311610b7757829003601f168201915b5050506005909301549192505060ff1686565b82610bf45760405162461bcd60e51b815260206004820152601860248201527f49504653204349442063616e6e6f7420626520656d707479000000000000000060448201526064016105aa565b86610c415760405162461bcd60e51b815260206004820152601e60248201527f456e6372797074656420646174612063616e6e6f7420626520656d707479000060448201526064016105aa565b6040805160e06020601f8b01819004028201810190925260c081018981526000928291908c908c9081908501838280828437600092019190915250505090825250604080516020601f8b0181900481028201810190925289815291810191908a908a90819084018382808284376000920191909152505050908252504260208083019190915260408051601f89018390048302810183018252888152920191908890889081908401838280828437600092019190915250505090825250604080516020601f870181900481028201810190925285815291810191908690869081908401838280828437600092018290525093855250506001602093840181905233835282845260408320805491820181558352929091208351939450849360069093020191829150610d73908261206a565b5060208201516001820190610d88908261206a565b506040820151600282015560608201516003820190610da7908261206a565b5060808201516004820190610dbc908261206a565b5060a091909101516005909101805460ff191691151591909117905533600090815260208190526040902054600103610e3257600380546001810182556000919091527fc2575a0e9e593c00f959f8c92f12db2869c3395a3b0502d05e2516446f71f85b0180546001600160a01b031916331790555b60058054906000610e4283612140565b9190505550336001600160a01b03167f3971e098c45f3feb712d60efd8340aa0c84f780238bbb556ad318b18c85b99d2868642604051610e8493929190612182565b60405180910390a2505050505050505050565b6007546001600160a01b03163314610ec15760405162461bcd60e51b81526004016105aa90611f72565b6001600160a01b03166000908152600260205260409020805460ff19166001179055565b6001600160a01b03821660009081526020819052604081205460609182918290819083908710610f4d5760405162461bcd60e51b8152602060048201526013602482015272496e646578206f7574206f6620626f756e647360681b60448201526064016105aa565b6001600160a01b0388166000908152602081905260408120805489908110610f7757610f77611fb3565b906000526020600020906006020190508060000181600101826002015483600301846004018560050160009054906101000a900460ff16858054610fba90611fc9565b80601f0160208091040260200160405190810160405280929190818152602001828054610fe690611fc9565b80156110335780601f1061100857610100808354040283529160200191611033565b820191906000526020600020905b81548152906001019060200180831161101657829003601f168201915b5050505050955084805461104690611fc9565b80601f016020809104026020016040519081016040528092919081815260200182805461107290611fc9565b80156110bf5780601f10611094576101008083540402835291602001916110bf565b820191906000526020600020905b8154815290600101906020018083116110a257829003601f168201915b505050505094508280546110d290611fc9565b80601f01602080910402602001604051908101604052809291908181526020018280546110fe90611fc9565b801561114b5780601f106111205761010080835404028352916020019161114b565b820191906000526020600020905b81548152906001019060200180831161112e57829003601f168201915b5050505050925081805461115e90611fc9565b80601f016020809104026020016040519081016040528092919081815260200182805461118a90611fc9565b80156111d75780601f106111ac576101008083540402835291602001916111d7565b820191906000526020600020905b8154815290600101906020018083116111ba57829003601f168201915b50505050509150965096509650965096509650509295509295509295565b6001600160a01b038116600090815260208190526040812080546060929067ffffffffffffffff81111561122b5761122b612003565b60405190808252806020026020018201604052801561125e57816020015b60608152602001906001900390816112495790505b50905060005b825481101561133e5782818154811061127f5761127f611fb3565b9060005260206000209060060201600301805461129b90611fc9565b80601f01602080910402602001604051908101604052809291908181526020018280546112c790611fc9565b80156113145780601f106112e957610100808354040283529160200191611314565b820191906000526020600020905b8154815290600101906020018083116112f757829003601f168201915b505050505082828151811061132b5761132b611fb3565b6020908102919091010152600101611264565b509392505050565b60606000600160045461135991906121a6565b9050600081841161136a578361136c565b815b905060008167ffffffffffffffff81111561138957611389612003565b6040519080825280602002602001820160405280156113b2578160200160208202803683370190505b50905060005b828110156113ef576113ca81856121a6565b8282815181106113dc576113dc611fb3565b60209081029190910101526001016113b8565b50949350505050565b6000806000600380549050600554600160045461141591906121a6565b925092509250909192565b3360009081526002602052604090205460ff1661147f5760405162461bcd60e51b815260206004820152601960248201527f4e6f7420617574686f72697a656420726573656172636865720000000000000060448201526064016105aa565b6006543410156114d15760405162461bcd60e51b815260206004820152601d60248201527f496e73756666696369656e742066656520666f7220616e616c7973697300000060448201526064016105aa565b6000600554116115235760405162461bcd60e51b815260206004820152601e60248201527f4e6f206461746120617661696c61626c6520666f7220616e616c79736973000060448201526064016105aa565b60028160ff16111561156f5760405162461bcd60e51b8152602060048201526015602482015274496e76616c696420616e616c79736973207479706560581b60448201526064016105aa565b600480546000918261158083612140565b909155506040805160c0810182523381524260208083019182526000838501818152855180840187528281526060860190815234608087015260ff8a1660a087015287835260019384905295909120845181546001600160a01b0319166001600160a01b039091161781559251918301919091555160028201805460ff1916911515919091179055915192935091600382019061161d908261206a565b506080820151600482015560a0909101516005909101805460ff191660ff90921691909117905560405181815233907f13c40d8d99a6f1c879a9a3ceb059580b7797b0cefed53ce81777d185b225d4da9060200160405180910390a261168381836119fb565b5050565b6007546001600160a01b031633146116b15760405162461bcd60e51b81526004016105aa90611f72565b600655565b6001600160a01b0381166000908152602081905260408120546060919082906117175760405162461bcd60e51b8152602060048201526013602482015272139bc819185d1848199bdc881c185d1a595b9d606a1b60448201526064016105aa565b6001600160a01b0384166000908152602081905260408120805461173d906001906121a6565b8154811061174d5761174d611fb3565b906000526020600020906006020190508060000181600201548260030182805461177690611fc9565b80601f01602080910402602001604051908101604052809291908181526020018280546117a290611fc9565b80156117ef5780601f106117c4576101008083540402835291602001916117ef565b820191906000526020600020905b8154815290600101906020018083116117d257829003601f168201915b5050505050925080805461180290611fc9565b80601f016020809104026020016040519081016040528092919081815260200182805461182e90611fc9565b801561187b5780601f106118505761010080835404028352916020019161187b565b820191906000526020600020905b81548152906001019060200180831161185e57829003601f168201915b50505050509050935093509350509193909250565b600381815481106118a057600080fd5b6000918252602090912001546001600160a01b0316905081565b6007546001600160a01b031633146118e45760405162461bcd60e51b81526004016105aa90611f72565b600454831061192a5760405162461bcd60e51b8152602060048201526012602482015271125b9d985b1a59081c995c5d595cdd08125160721b60448201526064016105aa565b60008381526001602052604090206002015460ff161561198c5760405162461bcd60e51b815260206004820152601a60248201527f416e616c7973697320616c726561647920636f6d706c6574656400000000000060448201526064016105aa565b600083815260016020819052604090912060028101805460ff19169092179091556003016119bb8284836121bf565b50827fc3c58ce0510ce40c8b21835415ca0e0284157848b3973d50e7d3680448a3bfb983836040516119ee929190612280565b60405180910390a2505050565b60608160ff16600003611a42575060408051808201909152601a81527f516d41766572616765416e616c79736973526573756c743132330000000000006020820152611abd565b8160ff16600103611a87575060408051808201909152601f81527f516d446973747269627574696f6e416e616c79736973526573756c74343536006020820152611abd565b5060408051808201909152601881527f516d5472656e64416e616c79736973526573756c74373839000000000000000060208201525b600083815260016020819052604090912060028101805460ff1916909217909155600301611aeb828261206a565b50827fc3c58ce0510ce40c8b21835415ca0e0284157848b3973d50e7d3680448a3bfb9826040516119ee919061229c565b80356001600160a01b0381168114611b3357600080fd5b919050565b600060208284031215611b4a57600080fd5b611b5382611b1c565b9392505050565b60008060408385031215611b6d57600080fd5b611b7683611b1c565b946020939093013593505050565b6020808252825182820181905260009190848201906040850190845b81811015611bc55783516001600160a01b031683529284019291840191600101611ba0565b50909695505050505050565b600060208284031215611be357600080fd5b5035919050565b6000815180845260005b81811015611c1057602081850181015186830182015201611bf4565b506000602082860101526020601f19601f83011685010191505092915050565b60018060a01b0387168152856020820152841515604082015260c060608201526000611c5f60c0830186611bea565b905083608083015260ff831660a0830152979650505050505050565b60018060a01b0386168152846020820152831515604082015260a060608201526000611caa60a0830185611bea565b90508260808301529695505050505050565b60c081526000611ccf60c0830189611bea565b8281036020840152611ce18189611bea565b90508660408401528281036060840152611cfb8187611bea565b90508281036080840152611d0f8186611bea565b91505082151560a0830152979650505050505050565b60008083601f840112611d3757600080fd5b50813567ffffffffffffffff811115611d4f57600080fd5b602083019150836020828501011115611d6757600080fd5b9250929050565b6000806000806000806000806080898b031215611d8a57600080fd5b883567ffffffffffffffff80821115611da257600080fd5b611dae8c838d01611d25565b909a50985060208b0135915080821115611dc757600080fd5b611dd38c838d01611d25565b909850965060408b0135915080821115611dec57600080fd5b611df88c838d01611d25565b909650945060608b0135915080821115611e1157600080fd5b50611e1e8b828c01611d25565b999c989b5096995094979396929594505050565b600060208083016020845280855180835260408601915060408160051b87010192506020870160005b82811015611e8957603f19888603018452611e77858351611bea565b94509285019290850190600101611e5b565b5092979650505050505050565b6020808252825182820181905260009190848201906040850190845b81811015611bc557835183529284019291840191600101611eb2565b600060208284031215611ee057600080fd5b813560ff81168114611b5357600080fd5b606081526000611f046060830186611bea565b8460208401528281036040840152611f1c8185611bea565b9695505050505050565b600080600060408486031215611f3b57600080fd5b83359250602084013567ffffffffffffffff811115611f5957600080fd5b611f6586828701611d25565b9497909650939450505050565b60208082526021908201527f4f6e6c79206f776e65722063616e2063616c6c20746869732066756e6374696f6040820152603760f91b606082015260800190565b634e487b7160e01b600052603260045260246000fd5b600181811c90821680611fdd57607f821691505b602082108103611ffd57634e487b7160e01b600052602260045260246000fd5b50919050565b634e487b7160e01b600052604160045260246000fd5b601f821115612065576000816000526020600020601f850160051c810160208610156120425750805b601f850160051c820191505b818110156120615782815560010161204e565b5050505b505050565b815167ffffffffffffffff81111561208457612084612003565b612098816120928454611fc9565b84612019565b602080601f8311600181146120cd57600084156120b55750858301515b600019600386901b1c1916600185901b178555612061565b600085815260208120601f198616915b828110156120fc578886015182559484019460019091019084016120dd565b508582101561211a5787850151600019600388901b60f8161c191681555b5050505050600190811b01905550565b634e487b7160e01b600052601160045260246000fd5b6000600182016121525761215261212a565b5060010190565b81835281816020850137506000828201602090810191909152601f909101601f19169091010190565b604081526000612196604083018587612159565b9050826020830152949350505050565b818103818111156121b9576121b961212a565b92915050565b67ffffffffffffffff8311156121d7576121d7612003565b6121eb836121e58354611fc9565b83612019565b6000601f84116001811461221f57600085156122075750838201355b600019600387901b1c1916600186901b178355612279565b600083815260209020601f19861690835b828110156122505786850135825560209485019460019092019101612230565b508682101561226d5760001960f88860031b161c19848701351681555b505060018560011b0183555b5050505050565b602081526000612294602083018486612159565b949350505050565b602081526000611b536020830184611bea56fea26469706673582212202c797a92977a49eb3a9752bee003294d8636c0e177066bf6f9c3bc56b2020e2064736f6c63430008180033",
  "linkReferences": {},
  "deployedLinkReferences": {}
}