{
  "_format": "hh-sol-artifact-1",
  "contractName": "DiabetesAnalytics",
  "sourceName": "contracts/DiabetesAnalytics.sol",
  "abi": [
    {
      "inputs": [],
      "stateMutability": "nonpayable",
      "type": "constructor"
    },
    {
      "anonymous": false,
      "inputs": [
        {
          "indexed": true,
          "internalType": "uint256",
          "name": "requestId",
          "type": "uint256"
        },
        {
          "indexed": false,
          "internalType": "string",
          "name": "resultCid",
          "type": "string"
        }
      ],
      "name": "AnalysisCompleted",
      "type": "event"
    },
    {
      "anonymous": false,
      "inputs": [
        {
          "indexed": true,
          "internalType": "address",
          "name": "researcher",
          "type": "address"
        },
        {
          "indexed": false,
          "internalType": "uint256",
          "name": "requestId",
          "type": "uint256"
        }
      ],
      "name": "AnalysisRequested",
      "type": "event"
    },
    {
      "anonymous": false,
      "inputs": [
        {
          "indexed": true,
          "internalType": "address",
          "name": "patient",
          "type": "address"
        },
        {
          "indexed": false,
          "internalType": "string",
          "name": "ipfsCid",
          "type": "string"
        },
        {
          "indexed": false,
          "internalType": "uint256",
          "name": "timestamp",
          "type": "uint256"
        }
      ],
      "name": "DataSubmitted",
      "type": "event"
    },
    {
      "inputs": [
        {
          "internalType": "uint256",
          "name": "",
          "type": "uint256"
        }
      ],
      "name": "allPatients",
      "outputs": [
        {
          "internalType": "address",
          "name": "",
          "type": "address"
        }
      ],
      "stateMutability": "view",
      "type": "function"
    },
    {
      "inputs": [],
      "name": "analysisFeeBasis",
      "outputs": [
        {
          "internalType": "uint256",
          "name": "",
          "type": "uint256"
        }
      ],
      "stateMutability": "view",
      "type": "function"
    },
    {
      "inputs": [
        {
          "internalType": "uint256",
          "name": "",
          "type": "uint256"
        }
      ],
      "name": "analysisRequests",
      "outputs": [
        {
          "internalType": "address",
          "name": "researcher",
          "type": "address"
        },
        {
          "internalType": "uint256",
          "name": "timestamp",
          "type": "uint256"
        },
        {
          "internalType": "bool",
          "name": "completed",
          "type": "bool"
        },
        {
          "internalType": "string",
          "name": "resultCid",
          "type": "string"
        },
        {
          "internalType": "uint256",
          "name": "fee",
          "type": "uint256"
        }
      ],
      "stateMutability": "view",
      "type": "function"
    },
    {
      "inputs": [
        {
          "internalType": "address",
          "name": "researcher",
          "type": "address"
        }
      ],
      "name": "authorizeResearcher",
      "outputs": [],
      "stateMutability": "nonpayable",
      "type": "function"
    },
    {
      "inputs": [
        {
          "internalType": "address",
          "name": "",
          "type": "address"
        }
      ],
      "name": "authorizedResearchers",
      "outputs": [
        {
          "internalType": "bool",
          "name": "",
          "type": "bool"
        }
      ],
      "stateMutability": "view",
      "type": "function"
    },
    {
      "inputs": [],
      "name": "getAllPatients",
      "outputs": [
        {
          "internalType": "address[]",
          "name": "",
          "type": "address[]"
        }
      ],
      "stateMutability": "view",
      "type": "function"
    },
    {
      "inputs": [],
      "name": "getAnalysisFee",
      "outputs": [
        {
          "internalType": "uint256",
          "name": "",
          "type": "uint256"
        }
      ],
      "stateMutability": "view",
      "type": "function"
    },
    {
      "inputs": [
        {
          "internalType": "uint256",
          "name": "requestId",
          "type": "uint256"
        }
      ],
      "name": "getAnalysisRequest",
      "outputs": [
        {
          "internalType": "address",
          "name": "researcher",
          "type": "address"
        },
        {
          "internalType": "uint256",
          "name": "timestamp",
          "type": "uint256"
        },
        {
          "internalType": "bool",
          "name": "completed",
          "type": "bool"
        },
        {
          "internalType": "string",
          "name": "resultCid",
          "type": "string"
        },
        {
          "internalType": "uint256",
          "name": "fee",
          "type": "uint256"
        }
      ],
      "stateMutability": "view",
      "type": "function"
    },
    {
      "inputs": [
        {
          "internalType": "address",
          "name": "patient",
          "type": "address"
        }
      ],
      "name": "getLatestPatientData",
      "outputs": [
        {
          "components": [
            {
              "internalType": "euint32",
              "name": "bloodGlucose",
              "type": "uint256"
            },
            {
              "internalType": "uint256",
              "name": "timestamp",
              "type": "uint256"
            },
            {
              "internalType": "string",
              "name": "ipfsCid",
              "type": "string"
            },
            {
              "internalType": "string",
              "name": "loincCode",
              "type": "string"
            },
            {
              "internalType": "bool",
              "name": "isActive",
              "type": "bool"
            }
          ],
          "internalType": "struct DiabetesAnalytics.PatientData",
          "name": "",
          "type": "tuple"
        }
      ],
      "stateMutability": "view",
      "type": "function"
    },
    {
      "inputs": [],
      "name": "getOwner",
      "outputs": [
        {
          "internalType": "address",
          "name": "",
          "type": "address"
        }
      ],
      "stateMutability": "view",
      "type": "function"
    },
    {
      "inputs": [
        {
          "internalType": "address",
          "name": "patient",
          "type": "address"
        }
      ],
      "name": "getPatientCids",
      "outputs": [
        {
          "internalType": "string[]",
          "name": "",
          "type": "string[]"
        }
      ],
      "stateMutability": "view",
      "type": "function"
    },
    {
      "inputs": [
        {
          "internalType": "address",
          "name": "patient",
          "type": "address"
        }
      ],
      "name": "getPatientSubmissionCount",
      "outputs": [
        {
          "internalType": "uint256",
          "name": "",
          "type": "uint256"
        }
      ],
      "stateMutability": "view",
      "type": "function"
    },
    {
      "inputs": [],
      "name": "getStats",
      "outputs": [
        {
          "internalType": "uint256",
          "name": "totalPatients",
          "type": "uint256"
        },
        {
          "internalType": "uint256",
          "name": "totalSubmissionsCount",
          "type": "uint256"
        },
        {
          "internalType": "uint256",
          "name": "totalRequests",
          "type": "uint256"
        }
      ],
      "stateMutability": "view",
      "type": "function"
    },
    {
      "inputs": [
        {
          "internalType": "address",
          "name": "researcher",
          "type": "address"
        }
      ],
      "name": "isAuthorizedResearcher",
      "outputs": [
        {
          "internalType": "bool",
          "name": "",
          "type": "bool"
        }
      ],
      "stateMutability": "view",
      "type": "function"
    },
    {
      "inputs": [],
      "name": "nextRequestId",
      "outputs": [
        {
          "internalType": "uint256",
          "name": "",
          "type": "uint256"
        }
      ],
      "stateMutability": "view",
      "type": "function"
    },
    {
      "inputs": [],
      "name": "owner",
      "outputs": [
        {
          "internalType": "address",
          "name": "",
          "type": "address"
        }
      ],
      "stateMutability": "view",
      "type": "function"
    },
    {
      "inputs": [
        {
          "internalType": "address",
          "name": "",
          "type": "address"
        },
        {
          "internalType": "uint256",
          "name": "",
          "type": "uint256"
        }
      ],
      "name": "patientSubmissions",
      "outputs": [
        {
          "internalType": "euint32",
          "name": "bloodGlucose",
          "type": "uint256"
        },
        {
          "internalType": "uint256",
          "name": "timestamp",
          "type": "uint256"
        },
        {
          "internalType": "string",
          "name": "ipfsCid",
          "type": "string"
        },
        {
          "internalType": "string",
          "name": "loincCode",
          "type": "string"
        },
        {
          "internalType": "bool",
          "name": "isActive",
          "type": "bool"
        }
      ],
      "stateMutability": "view",
      "type": "function"
    },
    {
      "inputs": [
        {
          "internalType": "uint8",
          "name": "analysisType",
          "type": "uint8"
        }
      ],
      "name": "requestAnalysis",
      "outputs": [],
      "stateMutability": "payable",
      "type": "function"
    },
    {
      "inputs": [
        {
          "internalType": "address",
          "name": "researcher",
          "type": "address"
        }
      ],
      "name": "revokeResearcher",
      "outputs": [],
      "stateMutability": "nonpayable",
      "type": "function"
    },
    {
      "inputs": [
        {
          "internalType": "einput",
          "name": "encryptedGlucose",
          "type": "bytes32"
        },
        {
          "internalType": "bytes",
          "name": "inputProof",
          "type": "bytes"
        },
        {
          "internalType": "string",
          "name": "ipfsCid",
          "type": "string"
        },
        {
          "internalType": "string",
          "name": "loincCode",
          "type": "string"
        }
      ],
      "name": "submitPatientData",
      "outputs": [],
      "stateMutability": "nonpayable",
      "type": "function"
    },
    {
      "inputs": [],
      "name": "totalSubmissions",
      "outputs": [
        {
          "internalType": "uint256",
          "name": "",
          "type": "uint256"
        }
      ],
      "stateMutability": "view",
      "type": "function"
    },
    {
      "inputs": [
        {
          "internalType": "uint256",
          "name": "newFee",
          "type": "uint256"
        }
      ],
      "name": "updateAnalysisFee",
      "outputs": [],
      "stateMutability": "nonpayable",
      "type": "function"
    },
    {
      "inputs": [],
      "name": "withdraw",
      "outputs": [],
      "stateMutability": "nonpayable",
      "type": "function"
    },
    {
      "stateMutability": "payable",
      "type": "receive"
    }
  ],
  "bytecode": "0x608060405266038d7ea4c6800060065534801561001b57600080fd5b50600780546001600160a01b0319163390811790915560016004819055600091825260026020526040909120805460ff19169091179055612621806100616000396000f3fe6080604052600436106101445760003560e01c806398038697116100b6578063c59d48471161006f578063c59d4847146103f1578063c6297c8014610421578063c63420b314610434578063cbae032614610454578063d815fbfa14610481578063d8f608df1461049757600080fd5b80639803869714610323578063a395401614610343578063a7cee37c14610359578063b0d8e61514610379578063b360a15d146103af578063c05da10b146103dc57600080fd5b80633fc421b0116101085780633fc421b014610223578063640b5847146102435780636a84a9851461027457806386a8e53514610298578063893d20e8146102d15780638da5cb5b1461030357600080fd5b8063056414291461015057806318a231a9146101725780631f66051d1461019d578063319aafc5146101ce5780633ccfd60b1461020e57600080fd5b3661014b57005b600080fd5b34801561015c57600080fd5b5061017061016b366004611f93565b6104b7565b005b34801561017e57600080fd5b5061018761050b565b6040516101949190611fae565b60405180910390f35b3480156101a957600080fd5b506101bd6101b8366004611ffb565b61056d565b60405161019495949392919061205a565b3480156101da57600080fd5b506101fe6101e9366004611f93565b60026020526000908152604090205460ff1681565b6040519015158152602001610194565b34801561021a57600080fd5b50610170610635565b34801561022f57600080fd5b506101bd61023e366004611ffb565b61069b565b34801561024f57600080fd5b5061026361025e36600461209b565b610781565b6040516101949594939291906120c5565b34801561028057600080fd5b5061028a60045481565b604051908152602001610194565b3480156102a457600080fd5b506101fe6102b3366004611f93565b6001600160a01b031660009081526002602052604090205460ff1690565b3480156102dd57600080fd5b506007546001600160a01b03165b6040516001600160a01b039091168152602001610194565b34801561030f57600080fd5b506007546102eb906001600160a01b031681565b34801561032f57600080fd5b5061017061033e366004612154565b6108e7565b34801561034f57600080fd5b5061028a60055481565b34801561036557600080fd5b50610170610374366004611f93565b610b42565b34801561038557600080fd5b5061028a610394366004611f93565b6001600160a01b031660009081526020819052604090205490565b3480156103bb57600080fd5b506103cf6103ca366004611f93565b610b90565b60405161019491906121f8565b3480156103e857600080fd5b5060065461028a565b3480156103fd57600080fd5b50610406610ce1565b60408051938452602084019290925290820152606001610194565b61017061042f36600461225c565b610d09565b34801561044057600080fd5b5061017061044f366004611ffb565b610fc2565b34801561046057600080fd5b5061047461046f366004611f93565b610ff1565b6040516101949190612286565b34801561048d57600080fd5b5061028a60065481565b3480156104a357600080fd5b506102eb6104b2366004611ffb565b61121e565b6007546001600160a01b031633146104ea5760405162461bcd60e51b81526004016104e1906122ec565b60405180910390fd5b6001600160a01b03166000908152600260205260409020805460ff19169055565b6060600380548060200260200160405190810160405280929190818152602001828054801561056357602002820191906000526020600020905b81546001600160a01b03168152600190910190602001808311610545575b5050505050905090565b600160208190526000918252604090912080549181015460028201546003830180546001600160a01b0390951694929360ff909216926105ac9061232d565b80601f01602080910402602001604051908101604052809291908181526020018280546105d89061232d565b80156106255780601f106105fa57610100808354040283529160200191610625565b820191906000526020600020905b81548152906001019060200180831161060857829003601f168201915b5050505050908060040154905085565b6007546001600160a01b0316331461065f5760405162461bcd60e51b81526004016104e1906122ec565b6007546040516001600160a01b03909116904780156108fc02916000818181858888f19350505050158015610698573d6000803e3d6000fd5b50565b600081815260016020819052604082208054918101546002820154600483015460038401805487968796606096889691956001600160a01b0390931694909360ff90921692909182906106ed9061232d565b80601f01602080910402602001604051908101604052809291908181526020018280546107199061232d565b80156107665780601f1061073b57610100808354040283529160200191610766565b820191906000526020600020905b81548152906001019060200180831161074957829003601f168201915b50505050509150955095509550955095505091939590929450565b6000602052816000526040600020818154811061079d57600080fd5b9060005260206000209060050201600091509150508060000154908060010154908060020180546107cd9061232d565b80601f01602080910402602001604051908101604052809291908181526020018280546107f99061232d565b80156108465780601f1061081b57610100808354040283529160200191610846565b820191906000526020600020905b81548152906001019060200180831161082957829003601f168201915b50505050509080600301805461085b9061232d565b80601f01602080910402602001604051908101604052809291908181526020018280546108879061232d565b80156108d45780601f106108a9576101008083540402835291602001916108d4565b820191906000526020600020905b8154815290600101906020018083116108b757829003601f168201915b5050506004909301549192505060ff1685565b6000600454116109345760405162461bcd60e51b815260206004820152601860248201527710dbdb9d1c9858dd081b9bdd081a5b9a5d1a585b1a5e995960421b60448201526064016104e1565b60006109768888888080601f01602080910402602001604051908101604052809392919081815260200183838082843760009201919091525061124892505050565b905060006040518060a0016040528083815260200142815260200187878080601f016020809104026020016040519081016040528093929190818152602001838380828437600092019190915250505090825250604080516020601f88018190048102820181019092528681529181019190879087908190840183828082843760009201829052509385525050600160209384018190523383528284526040808420805480840182559085529385902086516005909502019384559385015190830155509082015191925082916002820190610a5290826123cd565b5060608201516003820190610a6790826123cd565b50608091909101516004909101805460ff191691151591909117905533600090815260208190526040902054600103610add57600380546001810182556000919091527fc2575a0e9e593c00f959f8c92f12db2869c3395a3b0502d05e2516446f71f85b0180546001600160a01b031916331790555b60058054906000610aed836124a3565b9190505550336001600160a01b03167f3971e098c45f3feb712d60efd8340aa0c84f780238bbb556ad318b18c85b99d2878742604051610b2f939291906124bc565b60405180910390a2505050505050505050565b6007546001600160a01b03163314610b6c5760405162461bcd60e51b81526004016104e1906122ec565b6001600160a01b03166000908152600260205260409020805460ff19166001179055565b6001600160a01b038116600090815260208190526040812080546060929067ffffffffffffffff811115610bc657610bc6612367565b604051908082528060200260200182016040528015610bf957816020015b6060815260200190600190039081610be45790505b50905060005b8254811015610cd957828181548110610c1a57610c1a6124f5565b90600052602060002090600502016002018054610c369061232d565b80601f0160208091040260200160405190810160405280929190818152602001828054610c629061232d565b8015610caf5780601f10610c8457610100808354040283529160200191610caf565b820191906000526020600020905b815481529060010190602001808311610c9257829003601f168201915b5050505050828281518110610cc657610cc66124f5565b6020908102919091010152600101610bff565b509392505050565b60008060006003805490506005546001600454610cfe919061250b565b925092509250909192565b3360009081526002602052604090205460ff16610d685760405162461bcd60e51b815260206004820152601960248201527f4e6f7420617574686f72697a656420726573656172636865720000000000000060448201526064016104e1565b600060045411610db55760405162461bcd60e51b815260206004820152601860248201527710dbdb9d1c9858dd081b9bdd081a5b9a5d1a585b1a5e995960421b60448201526064016104e1565b600654341015610e075760405162461bcd60e51b815260206004820152601d60248201527f496e73756666696369656e742066656520666f7220616e616c7973697300000060448201526064016104e1565b600060055411610e595760405162461bcd60e51b815260206004820152601e60248201527f4e6f206461746120617661696c61626c6520666f7220616e616c79736973000060448201526064016104e1565b60028160ff161115610ea55760405162461bcd60e51b8152602060048201526015602482015274496e76616c696420616e616c79736973207479706560581b60448201526064016104e1565b6004805460009182610eb6836124a3565b909155506040805160a0810182523381524260208083019182526000838501818152855180840187528281526060860190815234608087015287835260019384905295909120845181546001600160a01b0319166001600160a01b039091161781559251918301919091555160028201805460ff19169115159190911790559151929350916003820190610f4a90826123cd565b506080919091015160049091015560405181815233907f13c40d8d99a6f1c879a9a3ceb059580b7797b0cefed53ce81777d185b225d4da9060200160405180910390a28160ff16600003610fa557610fa18161125f565b5050565b8160ff16600103610fb957610fa18161142d565b610fa181611665565b6007546001600160a01b03163314610fec5760405162461bcd60e51b81526004016104e1906122ec565b600655565b6110256040518060a00160405280600081526020016000815260200160608152602001606081526020016000151581525090565b6001600160a01b0382166000908152602081905260409020546110805760405162461bcd60e51b8152602060048201526013602482015272139bc819185d1848199bdc881c185d1a595b9d606a1b60448201526064016104e1565b6001600160a01b038216600090815260208190526040902080546110a69060019061250b565b815481106110b6576110b66124f5565b90600052602060002090600502016040518060a001604052908160008201548152602001600182015481526020016002820180546110f39061232d565b80601f016020809104026020016040519081016040528092919081815260200182805461111f9061232d565b801561116c5780601f106111415761010080835404028352916020019161116c565b820191906000526020600020905b81548152906001019060200180831161114f57829003601f168201915b505050505081526020016003820180546111859061232d565b80601f01602080910402602001604051908101604052809291908181526020018280546111b19061232d565b80156111fe5780601f106111d3576101008083540402835291602001916111fe565b820191906000526020600020905b8154815290600101906020018083116111e157829003601f168201915b50505091835250506004919091015460ff16151560209091015292915050565b6003818154811061122e57600080fd5b6000918252602090912001546001600160a01b0316905081565b6000611256838360046118ac565b90505b92915050565b6000600554116112a65760405162461bcd60e51b81526020600482015260126024820152714e6f206461746120746f20616e616c797a6560701b60448201526064016104e1565b60006112b1816119b5565b90506000805b60035481101561138c576000600382815481106112d6576112d66124f5565b60009182526020808320909101546001600160a01b03168083529082905260408220909250905b815481101561138157818181548110611318576113186124f5565b600091825260209091206004600590920201015460ff1615611379576113698661136484848154811061134d5761134d6124f5565b9060005260206000209060050201600001546119c2565b6119cf565b955084611375816124a3565b9550505b6001016112fd565b5050506001016112b7565b508015611428576040805180820182526013815272516d416e616c79736973526573756c7431323360681b60208083019190915260008681526001918290529290922060028101805460ff1916909317909255906003016113ed82826123cd565b50837fc3c58ce0510ce40c8b21835415ca0e0284157848b3973d50e7d3680448a3bfb98260405161141e919061251e565b60405180910390a2505b505050565b600061143881611a01565b9050600061144581611a01565b9050600061145281611a01565b905060005b6003548110156115c057600060038281548110611476576114766124f5565b60009182526020808320909101546001600160a01b03168083529082905260408220909250905b81548110156115b5578181815481106114b8576114b86124f5565b600091825260209091206004600590920201015460ff16156115ad5760008282815481106114e8576114e86124f5565b60009182526020822060059091020154915061150d826115086046611a01565b611a0e565b905061153589611530836115216001611a01565b61152b6000611a01565b611a40565b611a55565b9850600061156761154f8461154a6046611a01565b611a78565b6115628561155d608c611a01565b611aaa565b611adc565b905061157b89611530836115216001611a01565b985060006115928461158d608c611a01565b611aea565b90506115a689611530836115216001611a01565b9850505050505b60010161149d565b505050600101611457565b50604080518082018252601781527f516d446973747269627574696f6e526573756c7434353600000000000000000060208083019190915260008781526001918290529290922060028101805460ff19169093179092559060030161162582826123cd565b50847fc3c58ce0510ce40c8b21835415ca0e0284157848b3973d50e7d3680448a3bfb982604051611656919061251e565b60405180910390a25050505050565b600061167462278d004261250b565b90506000611685624f1a004261250b565b90506000611692816119b5565b9050600061169f816119b5565b905060008060005b600354811015611811576000600382815481106116c6576116c66124f5565b60009182526020808320909101546001600160a01b03168083529082905260408220909250905b815481101561180657818181548110611708576117086124f5565b600091825260209091206004600590920201015460ff16156117fe5789828281548110611737576117376124f5565b9060005260206000209060050201600101541061177b576117678861136484848154811061134d5761134d6124f5565b975085611773816124a3565b9650506117fe565b8882828154811061178e5761178e6124f5565b906000526020600020906005020160010154101580156117d05750898282815481106117bc576117bc6124f5565b906000526020600020906005020160010154105b156117fe576117ee8761136484848154811061134d5761134d6124f5565b9650846117fa816124a3565b9550505b6001016116ed565b5050506001016116a7565b50604080518082018252601081526f516d5472656e64526573756c7437383960801b60208083019190915260008a81526001918290529290922060028101805460ff19169093179092559060030161186982826123cd565b50877fc3c58ce0510ce40c8b21835415ca0e0284157848b3973d50e7d3680448a3bfb98260405161189a919061251e565b60405180910390a25050505050505050565b6000805160206125cc833981519152546040516302e817ff60e41b81526000916000805160206125ac833981519152916001600160a01b0390911690632e817ff0906119069088903390899060f88a901b90600401612531565b6020604051808303816000875af1158015611925573d6000803e3d6000fd5b505050506040513d601f19601f820116820180604052508101906119499190612572565b81546040516346ce4e4960e11b8152600481018390523360248201529193506001600160a01b031690638d9c9c9290604401600060405180830381600087803b15801561199557600080fd5b505af11580156119a9573d6000803e3d6000fd5b50505050509392505050565b6000611259826005611b1c565b6000611259826005611bc0565b6000826119e3576119e060006119b5565b92505b816119f5576119f260006119b5565b91505b61125683836000611c25565b6000611259826004611b1c565b600082611a2257611a1f6000611a01565b92505b81611a3457611a316000611a01565b91505b61125683836000611cd9565b6000611a4d848484611d40565b949350505050565b600082611a6957611a666000611a01565b92505b816119f5576119f26000611a01565b600082611a8c57611a896000611a01565b92505b81611a9e57611a9b6000611a01565b91505b61125683836000611ddb565b600082611abe57611abb6000611a01565b92505b81611ad057611acd6000611a01565b91505b61125683836000611e42565b600061125683836000611ea9565b600082611afe57611afb6000611a01565b92505b81611b1057611b0d6000611a01565b91505b61125683836000611f10565b6000805160206125cc83398151915254604051631ce2e8d760e31b81526004810184905260f883901b6001600160f81b03191660248201526000916000805160206125ac833981519152916001600160a01b039091169063e71746b8906044015b6020604051808303816000875af1158015611b9c573d6000803e3d6000fd5b505050506040513d601f19601f82011682018060405250810190611a4d9190612572565b6000805160206125cc8339815191525460405163025f346960e51b81526004810184905260f883901b6001600160f81b03191660248201526000916000805160206125ac833981519152916001600160a01b0390911690634be68d2090604401611b7d565b6000808215611c395750600160f81b611c3d565b5060005b6000805160206125cc8339815191525460405163f953e42760e01b81526000805160206125ac833981519152916001600160a01b03169063f953e42790611c8c9089908990879060040161258b565b6020604051808303816000875af1158015611cab573d6000803e3d6000fd5b505050506040513d601f19601f82011682018060405250810190611ccf9190612572565b9695505050505050565b6000808215611ced5750600160f81b611cf1565b5060005b6000805160206125cc83398151915254604051639675211f60e01b81526000805160206125ac833981519152916001600160a01b031690639675211f90611c8c9089908990879060040161258b565b6000806000805160206125ac833981519152600181015460405163cb3b940760e01b81526004810188905260248101879052604481018690529192506001600160a01b03169063cb3b9407906064016020604051808303816000875af1158015611dae573d6000803e3d6000fd5b505050506040513d601f19601f82011682018060405250810190611dd29190612572565b95945050505050565b6000808215611def5750600160f81b611df3565b5060005b6000805160206125cc8339815191525460405163052896f160e01b81526000805160206125ac833981519152916001600160a01b03169063052896f190611c8c9089908990879060040161258b565b6000808215611e565750600160f81b611e5a565b5060005b6000805160206125cc833981519152546040516334a6d7b960e11b81526000805160206125ac833981519152916001600160a01b03169063694daf7290611c8c9089908990879060040161258b565b6000808215611ebd5750600160f81b611ec1565b5060005b6000805160206125cc83398151915254604051630ccd46b160e31b81526000805160206125ac833981519152916001600160a01b03169063666a358890611c8c9089908990879060040161258b565b6000808215611f245750600160f81b611f28565b5060005b6000805160206125cc83398151915254604051631f31e28560e11b81526000805160206125ac833981519152916001600160a01b031690633e63c50a90611c8c9089908990879060040161258b565b80356001600160a01b0381168114611f8e57600080fd5b919050565b600060208284031215611fa557600080fd5b61125682611f77565b6020808252825182820181905260009190848201906040850190845b81811015611fef5783516001600160a01b031683529284019291840191600101611fca565b50909695505050505050565b60006020828403121561200d57600080fd5b5035919050565b6000815180845260005b8181101561203a5760208185018101518683018201520161201e565b506000602082860101526020601f19601f83011685010191505092915050565b60018060a01b0386168152846020820152831515604082015260a06060820152600061208960a0830185612014565b90508260808301529695505050505050565b600080604083850312156120ae57600080fd5b6120b783611f77565b946020939093013593505050565b85815284602082015260a0604082015260006120e460a0830186612014565b82810360608401526120f68186612014565b91505082151560808301529695505050505050565b60008083601f84011261211d57600080fd5b50813567ffffffffffffffff81111561213557600080fd5b60208301915083602082850101111561214d57600080fd5b9250929050565b60008060008060008060006080888a03121561216f57600080fd5b87359650602088013567ffffffffffffffff8082111561218e57600080fd5b61219a8b838c0161210b565b909850965060408a01359150808211156121b357600080fd5b6121bf8b838c0161210b565b909650945060608a01359150808211156121d857600080fd5b506121e58a828b0161210b565b989b979a50959850939692959293505050565b600060208083016020845280855180835260408601915060408160051b87010192506020870160005b8281101561224f57603f1988860301845261223d858351612014565b94509285019290850190600101612221565b5092979650505050505050565b60006020828403121561226e57600080fd5b813560ff8116811461227f57600080fd5b9392505050565b6020815281516020820152602082015160408201526000604083015160a060608401526122b660c0840182612014565b90506060840151601f198483030160808501526122d38282612014565b9150506080840151151560a08401528091505092915050565b60208082526021908201527f4f6e6c79206f776e65722063616e2063616c6c20746869732066756e6374696f6040820152603760f91b606082015260800190565b600181811c9082168061234157607f821691505b60208210810361236157634e487b7160e01b600052602260045260246000fd5b50919050565b634e487b7160e01b600052604160045260246000fd5b601f821115611428576000816000526020600020601f850160051c810160208610156123a65750805b601f850160051c820191505b818110156123c5578281556001016123b2565b505050505050565b815167ffffffffffffffff8111156123e7576123e7612367565b6123fb816123f5845461232d565b8461237d565b602080601f83116001811461243057600084156124185750858301515b600019600386901b1c1916600185901b1785556123c5565b600085815260208120601f198616915b8281101561245f57888601518255948401946001909101908401612440565b508582101561247d5787850151600019600388901b60f8161c191681555b5050505050600190811b01905550565b634e487b7160e01b600052601160045260246000fd5b6000600182016124b5576124b561248d565b5060010190565b604081528260408201528284606083013760006060848301015260006060601f19601f8601168301019050826020830152949350505050565b634e487b7160e01b600052603260045260246000fd5b818103818111156112595761125961248d565b6020815260006112566020830184612014565b8481526001600160a01b038416602082015260806040820181905260009061255b90830185612014565b905060ff60f81b8316606083015295945050505050565b60006020828403121561258457600080fd5b5051919050565b92835260208301919091526001600160f81b03191660408201526060019056feed8d60e34876f751cc8b014c560745351147d9de11b9347c854e881b128ea600ed8d60e34876f751cc8b014c560745351147d9de11b9347c854e881b128ea601a2646970667358221220c6fe7d6ca0acb17471226fdc5ac52ffd092552d556c9fe13d5f02acb1fc7feda64736f6c63430008180033",
  "linkReferences": {},
  "deployedLinkReferences": {}
}